:100000000C94C9130C9409140C9409140C9409143D
:100010000C9409140C9409140C9409140C940914EC
:100020000C9409140C9409140C9409140C940914DC
:100030000C9409140C943FC30C9409140C940914E7
:100040000C9409140C9484220C9409140C94091433
:100050000C9409140C943C210C9409140C94F5C2D2
:100060000C9409140C9494790C948A790C940914C6
:100070000C9409140C9409140C9409140C9409148C
:100080000C9409140C9409140C9409140C9409147C
:100090000C9409140C9409140C9409140C9409146C
:1000A0000C9409140C9409140C9409140C9409145C
:1000B0000C9409140C9409140C9409140C9409144C
:1000C0000C9409140C9409140C9409140C9409143C
:1000D0000C9409140C9409140C94F1740C94BB74D2
:1000E0000C940914084AD73B3BCE016E84BCBFFD7B
:1000F000C12F3D6C74319ABD56833DDA3D00C77FF8
:1001000011BED9E4BB4C3E916BAAAABE0000008090
:100110003F05A84CCDB2D44EB93836A9020C50B91F
:10012000918688083CA6AAAA2ABE000000803F004B
:100130004E414E494E495459494E46CDCCCC3D0ACC
:10014000D7233C17B7D13877CC2B329595E6241FAF
:10015000B14F0A000020410000C84200401C462068
:10016000BCBE4CCA1B0E5AAEC59D7420204D323009
:1001700036205800486F6D65206F666673657400A1
:100180004361703A00434F4E4649475F4558504FD0
:100190005254004D4541545041434B00434F4F4C46
:1001A00045525F54454D50455241545552450043C8
:1001B00048414D4245525F54454D5045524154557A
:1001C000524500424142595354455050494E470010
:1001D00041524353004D4F54494F4E5F4D4F44459C
:1001E0005300544845524D414C5F50524F54454383
:1001F00054494F4E00455854454E4445445F4D3296
:100200003000435553544F4D5F4649524D5741526C
:10021000455F55504C4F4144004C464E5F57524944
:100220005445004C4F4E475F46494C454E414D4565
:10023000004155544F5245504F52545F53445F5301
:1002400054415455530053445F575249544500524A
:100250004550454154004D554C54495F564F4C55FF
:100260004D45005344434152440050524F4D505469
:100270005F535550504F525400484F53545F4143C1
:1002800054494F4E5F434F4D4D414E445300454DF1
:10029000455247454E43595F5041525345520043E2
:1002A0004153455F4C494748545F4252494748547F
:1002B0004E45535300544F47474C455F4C494748C0
:1002C000545300534F4654574152455F504F574582
:1002D00052004255494C445F50455243454E5400EC
:1002E0004C4556454C494E475F44415441005A5F86
:1002F00050524F42450052554E4F555400415554AF
:100300004F4C4556454C005052494E545F4A4F425F
:100310000050524F4752455353004155544F524598
:10032000504F52545F54454D50004155544F524523
:10033000504F52545F504F5300564F4C554D4554FB
:1003400052494300454550524F4D0042494E41529B
:10035000595F46494C455F5452414E534645520001
:1003600053455249414C5F584F4E5F584F464600E7
:100370004649524D574152455F4E414D453A4D61B8
:10038000726C696E20322E312E3120284465632034
:10039000313920323032322031313A30373A333449
:1003A0002920534F555243455F434F44455F5552B3
:1003B0004C3A6769746875622E636F6D2F4D617278
:1003C0006C696E4669726D776172652F4D61726CF2
:1003D000696E2050524F544F434F4C5F5645525315
:1003E000494F4E3A312E30204D414348494E455FEA
:1003F000545950453A3344205072696E74657220E6
:1004000045585452554445525F434F554E543A3126
:1004100020555549443A63656465326132662D342E
:100420003161322D343734382D396231322D633514
:10043000356336326633363766660A0047322F47F1
:10044000332062616420706172616D6574657273DE
:100450000A00203B0020204D3835312058005A2D0D
:1004600050726F6265204F6666736574002569730C
:100470000025696D20256973002569682025696D4F
:100480002025697300256964202569682025696D28
:10049000202569730025697920256964202569680C
:1004A0002025696D2025697300436F6F6C696E6745
:1004B0002E2E2E0045312025530020573A0042654C
:1004C0006420436F6F6C696E672E2E2E0042656448
:1004D0002048656174696E672E2E2E002364656660
:1004E000696E652044454641554C545F0000626585
:1004F00064004B6420004B6920004B702000206694
:10050000696E69736865642120507574207468652C
:10051000206C617374204B702C204B6920616E64D9
:10052000204B6420636F6E7374616E747320667207
:100530006F6D2062656C6F7720696E746F20436FFA
:100540006E66696775726174696F6E2E680A005015
:100550004944204175746F74756E65002066616949
:100560006C6564212074696D656F75740A0050496B
:1005700044204175746F74756E6500206661696C06
:100580006564212054656D706572617475726520B3
:10059000746F6F20686967680A005049442041758C
:1005A000746F74756E6500504944204379636C65BF
:1005B000730025532025692F256900204B643A20BC
:1005C00000204B693A2000204B703A200020436CF9
:1005D000617373696320504944200A00204E6F20E4
:1005E0006F76657273686F6F740A002054753A20D5
:1005F00000204B753A2000206D61783A2000206D74
:10060000696E3A200020643A200020626961733AE2
:10061000200048656174696E672E2E2E0020737469
:100620006172740A00504944204175746F74756E8C
:100630006500206661696C6564212054656D706594
:1006400072617475726520746F6F20686967680ADB
:1006500000504944204175746F74756E65005049AF
:1006600044204175746F74756E6500206661696C15
:100670006564212042616420686561746572206947
:10068000640A00504944204175746F74756E6500AA
:1006900046696C616D656E745F72756E6F7574001E
:1006A000454550524F4D5F7665725F77726F6E674A
:1006B00000506F7765725F6661696C757265005393
:1006C000445F636172645F6572726F720041626E53
:1006D0006F726D616C5F686F74656E645F74656D79
:1006E000700041626E6F726D616C5F6265645F7411
:1006F000656D7000322E312E31004A333320004AAE
:10070000303200204D002048200041375620004163
:100710003656202D2D2D004136562000205A3A20E5
:100720000020593A200041355620583A20004134E3
:1007300056200041335620004132562000413156A8
:10074000200041305620004D323520500A4D3234C1
:10075000004D3234005072696E742041626F7274C1
:1007600065640043616E6E6F7420656E74657220FF
:100770007375626469723A20004A3231004A32313C
:10078000004A3230004A3132004739310A473025B9
:10079000730A473930004732385A00473238590017
:1007A00047323858004132305620004A3132004D2D
:1007B00031303030004A3034004D31303030204359
:1007C000004A3136004D313030302043004A313656
:1007D000004A3035004A3236004D3530310A4D344A
:1007E00032302053310041333156200041333156ED
:1007F00020004133315620004D65736820636861E5
:100800006E6765732073617665642E004D353030F8
:10081000004D657368206368616E6765732061626F
:10082000616E646F6E65642C2070726576696F7599
:1008300073206D65736820726573746F7265642EC2
:10084000004D3530310A4D343230205331004A32B8
:1008500036004732380A473239004A3236004A32C7
:100860003400473238004132395620004E65772037
:100870005446542070616E656C20646574656374C1
:10088000656421005374616E64617264205446543F
:100890002070616E656C20646574656374656421A5
:1008A000004A3039004A3037004265642074656D73
:1008B000702061626E6F726D616C21203A20004A77
:1008C00031300045787472756465722074656D709E
:1008D0002061626E6F726D616C21203A20004A3196
:1008E00030004A31380046696C616D656E74205085
:1008F000757267696E672E2E2E004A313800526578
:10090000686561742066696E69736865642E004A63
:100910003138004865617465722054696D656F7582
:1009200074004A3138004E6F7A7A6C6520506172DB
:100930006B6564005072696E7420506175736564F4
:1009400000454550524F4D2056657273696F6E20B9
:100950004572726F72004A30380042656420486503
:100960006174696E672E2E2E004A3036004520488D
:10097000656174696E672E2E2E004A313600507202
:10098000696E742041626F72746564004A31380088
:100990005072696E7420506175736564004A313815
:1009A00000526568656174696E672E2E2E004A32AA
:1009B00035004731205A35302046353030005072EE
:1009C0006F62696E67204661696C6564004A323502
:1009D000004D3530300A4732370020526561647966
:1009E0002E002E2E202020202020202020202020FD
:1009F0002020202020202E67636F646500454E4430
:100A000000464E2000486F6D696E67204661696C34
:100A10006564006F70656E00545249474745524502
:100A200044003A200066696C616D656E74007A5FFF
:100A300070726F6265007A325F6D696E007A5F6D09
:100A4000696E00795F6D696E00785F6D696E005246
:100A500065706F7274696E6720656E6473746F7011
:100A6000207374617475730A0020746F6F206C6F4B
:100A70006E6720657874727573696F6E2070726529
:100A800076656E7465640A0020636F6C6420657817
:100A900074727573696F6E2070726576656E7465B9
:100AA000640A00000084C1000090C00000000057EC
:100AB00061726E696E673A20486F6D696E67204299
:100AC000756D702044697669736F72203C20310A1D
:100AD000000202040000C8430000C8430000E143D4
:100AE0000000A0400000A040000000404A31340057
:100AF0004A3138004A3034000000C8430000C8437F
:100B00000000E143000000000000000000000000C1
:100B100053657474696E67732053746F72656400F3
:100B2000290A002062797465733B20637263200098
:100B300053657474696E67732053746F72656420B3
:100B4000280048617264636F64656420446566616F
:100B5000756C742053657474696E6773204C6F6193
:100B60006465640020286D6D2900203B204C65766B
:100B7000656C696E67200020204D343230205300B0
:100B80004175746F20426564204C6576656C696EB2
:100B9000670020204D393030204B004C696E656174
:100BA0007220416476616E636500203B2053656E60
:100BB000736F72200020204D34313220530046697B
:100BC0006C616D656E742072756E6F7574207365DF
:100BD0006E736F7200204A00202047323920572060
:100BE000490020204D3134392043203B20556E6987
:100BF000747320696E2043656C736975730A0054C1
:100C0000656D706572617475726520556E69747377
:100C1000002020473231203B004C696E6561722014
:100C2000556E69747300454550524F4D2064617490
:100C30006173697A65206572726F722E0A0045458C
:100C400050524F4D2056657273696F6E2045727217
:100C50006F7200454550524F4D20496E64657820B3
:100C60004572726F7200454550524F4D20435243BA
:100C7000204572726F7200290A00206279746573D0
:100C80003B2063726320002073746F72656420736D
:100C9000657474696E6773207265747269657665D0
:100CA00064202800202863616C63756C617465643E
:100CB00029210A0020213D2000454550524F4D205A
:100CC000435243206D69736D61746368202D202841
:100CD00073746F7265642920002053697A653A2025
:100CE00000496E6465783A20000000C8420000C8E0
:100CF000420000A0410000F0410000A0420000C8F6
:100D0000420000C8430000D2429001000090010060
:100D1000003200000010270000204D61726C696EE7
:100D20003D563836290A00454550524F4D207665CC
:100D30007273696F6E206D69736D617463682028CA
:100D4000454550524F4D3D0024F404D9201BC40C9E
:100D50005C0E9804C4095F0265077101F405F9008F
:100D6000FB04B30048048700C10369005803550021
:100D700003034500BE023A008402310053022A00F8
:100D80002902250004022000E4011C00C80119000A
:100D9000AF011700980114008401130071011000C5
:100DA0006101100051010E0043010D0036010B00DE
:100DB0002B010B0020010B00150109000C0109009B
:100DC00003010800FB000800F3000800EB00070027
:100DD000E4000600DE000600D8000600D20006008F
:100DE000CC000500C7000500C2000500BD000400DE
:100DF000B9000400B5000400B1000400AD00040017
:100E0000A9000400A5000300A20003009F00040045
:100E10009B0003009800030095000200930003006C
:100E2000900003008D0002008B0003008800020088
:100E30008600020084000300810002007F0002009F
:100E40007D0002007B0002007900020077000100B3
:100E500076000200740002007200010071000200BE
:100E60006F0002006D0001006C0002006A000100CA
:100E700069000200670001006600010065000100D2
:100E800064000200620001006100010060000100D6
:100E90005F0002005D0001005C0001005B000100DA
:100EA0005A000100590001005800010057000100DC
:100EB00056000100550001005400010053000000DD
:100EC00053000100520001005100010050000100D8
:100ED0004F0001004E0000004E0001004D000100D7
:100EE0004C0001004B0000004B0001004A000100D3
:100EF00049000100480000004800010047000100CF
:100F000046000000460001004500000045000100C9
:100F100044000100430000004300010042000000C3
:100F200042000100410000004100010040000100BA
:100F30003F0000003F0001003E0000003E000100B5
:100F40003D0000003D0001003C0000003C000000AE
:100F50003C0001003B0000003B0001003A000000A3
:100F60003A0001003900000039000100380000009B
:100F70003800000038000100370000003700010091
:100F80003600000036000000360001003500000089
:100F9000350000003500010034000000340000007E
:100FA0003400010033000000330000003300010072
:100FB0003200000032000000320001003100000069
:100FC000310000003100010030000000300000005E
:100FD000300001002F0000002F0000002F00000053
:100FE0002F0001002E0000002E0000002E00010046
:100FF0002D0000002D0000002D0000002D0001003C
:101000002C0000002C0000002C0000002C0001002F
:101010002B0000002B0000002B0000002B00010023
:101020002A0000002A0000002A0000002A00010017
:10103000290000002900000029000000290000000C
:1010400029000100280000002800000028000000FE
:1010500028000000280001002700000027000000F1
:1010600027000000270000002700010026000000E4
:1010700026000000260000002600000026000100D7
:1010800025000000250000002500000025000000CC
:1010900025000000250001002400000024000000BD
:1010A00024000000240000002400010023000000B0
:1010B00023000000230000002300000023000000A4
:1010C0002300000023000100220000002200000095
:1010D0002200000022000000220000002200010087
:1010E000210000002100000021000000210000007C
:1010F000210000002100000021000100200000006C
:10110000200000002000000020000000200000005F
:101110002000000020000000200001001F0000004F
:101120001F0000001F0000001F0000001F00000043
:101130001F0000001F0001001E0000001E00000034
:101140001E0000001E00000024F4D43050C38E2086
:10115000C2A24017828B7011127A910D816CD90A4C
:10116000A861E108C7586607615143061E4B5D053B
:10117000C145A7041A411104093D9803713931038F
:101180004036DB0265339102D4305402802E1D02BA
:10119000632CEE01752AC501B028A001102781013A
:1011A0008F2564012B244B01E0223401AC211F0167
:1011B0008D200D01801FFC00841EED00971DDF00B7
:1011C000B81CD200E61BC600201BBC00641AB2008B
:1011D000B219A8000A19A0006A189900D117910045
:1011E00040178B00B516840031167E00B3157900C8
:1011F0003A157300C7146F0058146A00EE136600A6
:101200008813630025135E00C7125B006C12570041
:1012100015125400C111510070114F0021114B00E3
:10122000D61049008D1047004610440002104200BD
:10123000C00F4000800F3E00420F3C00060F3B00F5
:10124000CB0E3800930E37005C0E3500270E3400AD
:10125000F30D3200C10D3100900D3000600D2E00F5
:10126000320D2D00050D2C00D90C2B00AE0C2900E1
:10127000850C29005C0C2700350C27000E0C26007D
:10128000E80B2400C40B2400A00B23007D0B2300DB
:101290005A0B2100390B2100180B2000F80A1F00FF
:1012A000D90A1E00BB0A1E009D0A1D00800A1D00EF
:1012B000630A1C00470A1B002C0A1B00110A1A00B3
:1012C000F7091A00DD091900C4091900AB09190052
:1012D000920917007B091800630917004C091600D2
:1012E00036091600200916000A091500F508150030
:1012F000E0081400CC081400B8081400A408140076
:10130000900813007D0812006B08130058081200A3
:1013100046081200340811002308110012081100B9
:1013200001081100F0071000E0071000D0071000BE
:10133000C0071000B0070F00A107100091070E00B2
:1013400083070F0074070F0065070E0057070E0094
:1013500049070E003B070D002E070E0020070D0069
:1013600013070D0006070D00F9060C00ED060D0031
:10137000E0060C00D4060C00C8060C00BC060C00ED
:10138000B0060C00A4060B0099060C008D060B009D
:1013900082060B0077060B006C060B0061060A0044
:1013A00057060B004C060A0042060A0038060A00DF
:1013B0002E060A0024060A001A060A001006090072
:1013C00007060A00FD050900F4050900EB05090000
:1013D000E2050900D9050900D0050900C705090083
:1013E000BE050900B5050800AD050800A505090002
:1013F0009C050800940508008C0508008405080079
:101400007C050800740508006C05070065050800E8
:101410005D050700560508004E0507004705070053
:101420004005080038050700310507002A050700B8
:10143000230507001C050600160507000F05070019
:101440000805060002050700FB040600F504070076
:10145000EE040600E8040600E2040700DB040600D0
:10146000D5040600CF040600C9040600C304060024
:10147000BD040600B7040600B1040500AC04060074
:10148000A6040600A00405009B04060095040500C0
:10149000900406008A040500850405008004060007
:1014A0007A04050075040500700405006B0405004E
:1014B00066040500610405005C040500570405008E
:1014C000520405004D0405004804050043040500CE
:1014D0003E0404003A04050035040500300404000D
:1014E0002C04050027040400230405001E04040046
:1014F0001A04040016040500110404000D0404007D
:10150000090405000404040000040400FC030400B2
:10151000F8030400F4030400F0030400EC030400E7
:10152000E8030400E4030400E0030400DC03040017
:10153000D8030400D4030400D0030400CC03040047
:10154000C8030300C503030020436F756E74205861
:101550003A00004265640045310045006265640060
:101560002C2073797374656D2073746F707065646B
:1015700021204865617465725F49443A20004572D4
:10158000723A204D415854454D50004D41585445F4
:101590004D502074726967676572656400486561C3
:1015A00074696E67204661696C65640048656174A2
:1015B000696E67206661696C6564004D3131322067
:1015C00053687574646F776E0070012C0190012769
:1015D00001B0012201C0011D01F001180110021328
:1015E0000130020E016002090190020401C002FFF5
:1015F000000003FA004003F5008003F000D003EB85
:10160000002004E6007004E100E004DC004005D79F
:1016100000C005D2004006CD00D006C8008007C338
:10162000003008BE00F008B900C009B400B00AAF2D
:1016300000B00BAA00D00CA500000EA000500F9B1C
:1016400000C01096005012910000148C00C0158745
:1016500000B0178200B0197D00D01B7800001E7307
:101660000040206E0090226900F024640040275F53
:101670000090295A00E02B5500102E500020304BCE
:101680000010324600E033410090353C00103737FF
:101690000070383200A0392D00B03A2800A03B235A
:1016A00000603C1E00103D1900903D1400103E0FDC
:1016B00000703E0A00C03E0500003F0000403FFBB6
:1016C000FF803FF6FFC03FF1FF4572723A204D495F
:1016D0004E54454D50004D494E54454D5020747266
:1016E0006967676572656400544845524D414C20F6
:1016F00052554E4157415900546865726D616C20D6
:1017000052756E6177617900202F002042403A00C7
:1017100020403A0020573A007C3C3E5E2B3D3F2F54
:101720005B5D3B2C2A225C00434F4D4D554E494397
:101730004154494F4E0044525952554E0045525261
:101740004F525300494E464F004543484F004572A3
:10175000726F722077726974696E6720746F2045AA
:101760004550524F4D210A0053544F505045442E7E
:1017700020005072696E7465722073746F707065AA
:10178000642064756520746F206572726F72732EA9
:101790002046697820746865206572726F722061D6
:1017A0006E6420757365204D39393920746F20724D
:1017B0006573746172742E202854656D7065726152
:1017C000747572652069732072657365742E205379
:1017D0006574206974206166746572207265737423
:1017E000617274696E67290A004E6F2043686563F1
:1017F0006B73756D2077697468206C696E65206EF7
:10180000756D6265722C204C617374204C696E6535
:101810003A20004E6F20436865636B73756D2077C7
:10182000697468206C696E65206E756D6265722CD6
:10183000204C617374204C696E653A2000636865C2
:10184000636B73756D206D69736D617463682C20B3
:101850004C617374204C696E653A20004C696E656A
:10186000204E756D626572206973206E6F74204C16
:10187000617374204C696E65204E756D6265722BC4
:10188000312C204C617374204C696E653A20004DF8
:101890003131300053657269616C20737461747505
:1018A00073206D69736D617463680A00534420721C
:1018B000656164206572726F720A00746F6F206DCB
:1018C00075636820696E6163746976652074696DFB
:1018D00065202D2063757272656E7420636F6D6D67
:1018E000616E643A20002121204B494C4C206361F9
:1018F000757365642062792000486F74656E64209A
:1019000049646C652054696D656F757400486F7427
:10191000656E642049646C652054696D656F7574EB
:101920000A00627573793A20706175736564206688
:101930006F7220696E7075740A00627573793A204F
:1019400070617573656420666F7220757365720AC5
:1019500000627573793A2070726F63657373696E94
:10196000670A004A3032004A3031004A3030004ABB
:101970003233004A3135004D363030004A313100C3
:101980005072696E7465722068616C7465642E2093
:101990006B696C6C28292063616C6C6564210A009A
:1019A0006563686F3A004572726F723A0042696C03
:1019B000696E656172204C6576656C696E6720475B
:1019C0007269643A0A00486F74656E6420746F6FC0
:1019D00020636F6C640A0053656E64204D313038AB
:1019E00020746F20726573756D650A00496E7365AA
:1019F00072742066696C616D656E7420616E64201E
:101A000073656E64204D3130380A00526568656137
:101A10007420446F6E6500526568656174696E6715
:101A20002E2E2E004865617465722054696D656FB5
:101A300075740053656E64204D31303820746F200A
:101A400068656174206E6F7A7A6C650A004E6F7AF1
:101A50007A6C65205061726B6564004F46460A00DF
:101A60004661646520486569676874200042656462
:101A7000204C6576656C696E6720004661696C650F
:101A80006420746F20656E61626C6520426564201D
:101A90004C6576656C696E670A00496E76616C69A3
:101AA00064206D6573682E0A004732372F6E204719
:101AB000312059302046353030300050726F626925
:101AC0006E6720506F696E740025532025692F259D
:101AD00069002E0A002F0050726F62696E67206DD8
:101AE00065736820706F696E742000202844525915
:101AF00052554E2900473239204175746F20426596
:101B000064204C6576656C696E67003F20284C2C1C
:101B1000522C462C4229206F7574206F6620626F0C
:101B2000756E64732E0A003F2856296572626F73C2
:101B300065206C6576656C20696D706C6175736984
:101B4000626C652028302D34292E0A004261642001
:101B50005A2076616C75650A004E6F2062696C6967
:101B60006E65617220677269640A0020204D363606
:101B70003600456E6473746F702061646A757374A7
:101B80006D656E740020440020204D3230302053AB
:101B900000202844697361626C6564293A004669D3
:101BA0006C616D656E742073657474696E67730023
:101BB00020204D3230312058004D61782041636340
:101BC000656C65726174696F6E2028756E697473D7
:101BD0002F7332290020204D3230332058004D61C0
:101BE00078206665656472617465732028756E6916
:101BF00074732F73290020520020204D323034207E
:101C00005000416363656C65726174696F6E202872
:101C1000756E6974732F7332292028503C70726975
:101C20006E742D616363656C3E20523C7265747204
:101C30006163742D616363656C3E20543C74726112
:101C400076656C2D616363656C3E2900204A002037
:101C5000540020530020204D323035204200416492
:101C600076616E6365642028423C6D696E5F7365C2
:101C7000676D656E745F74696D655F75733E205343
:101C80003C6D696E5F66656564726174653E205483
:101C90003C6D696E5F74726176656C5F66656564E4
:101CA000726174653E204A3C6A756E635F64657656
:101CB0003E290020440020490020204D33303120AF
:101CC0005000486F74656E64205049440020440001
:101CD00020490020204D33303420500042656420DC
:101CE0005049440020580020204D61783A200020BF
:101CF0000020204D696E3A2000203B200020204D1E
:101D0000323131205300536F667420656E647374F2
:101D10006F707300203B0020550020204D3630337B
:101D2000204C0046696C616D656E74206C6F616457
:101D30002F756E6C6F6164003B200020496E7661E8
:101D40006C69642065787472756465722000536CE8
:101D50006565702E2E2E004732384C3000205A3ADE
:101D6000200020593A200042656420583A20004D56
:101D700065736820706F696E74206F7574206F666C
:101D80002072616E67650A00436C69636B20746F33
:101D900020526573756D652E2E2E004E6F204D6F8F
:101DA00076652E00456E642066696C65206C6973EB
:101DB000740A00426567696E2066696C65206C690B
:101DC00073740A004E6F206D656469610A00286EA5
:101DD0006F2066696C65290043757272656E7420A8
:101DE00066696C653A20005344207072696E7469AC
:101DF0006E67206279746520004E6F742053442012
:101E00007072696E74696E670A002E0A0044656C10
:101E10006574696F6E206661696C65642C20466923
:101E20006C653A200046696C652064656C65746574
:101E3000643A005072696E742074696D653A2000CE
:101E40000A53746174733A2046696C616D656E74EF
:101E500020757365643A20002C204C6F6E676573A3
:101E600074206A6F623A2000546F74616C20746948
:101E70006D653A200053746174733A20002C20463B
:101E800061696C65643A20002C2046696E6973684C
:101E900065643A20005072696E74733A200053747E
:101EA0006174733A20006F6B006F666600491744D7
:101EB000173D173617281744454255473A004D310C
:101EC00031332053003344205072696E74657220A0
:101ED0004F46462E002F2F003F4A206F7574206F0B
:101EE000662072616E67652028302E303120746F55
:101EF00020302E33290A0046523A0020466C6F7774
:101F00003A200064697300656E0043290A0061622B
:101F10006C656420286D696E2074656D70200043C7
:101F20006F6C642065787472756465732061726586
:101F300020004F4646004F4E0046696C616D656E4D
:101F4000742072756E6F757420004D3432312069C3
:101F50006E636F727265637420706172616D657417
:101F600065722075736167650A004D65736820703E
:101F70006F696E74206F7574206F662072616E6772
:101F8000650A004F666673657473204170706C69F2
:101F90006564004572723A20546F6F206661722149
:101FA00000546F6F206661722066726F6D207265DB
:101FB000666572656E636520706F696E740A0045B0
:101FC0004550524F4D204F4B0A00290A0020746F94
:101FD00020003F5A206F7574206F662072616E6713
:101FE00065202800290A0020746F20003F59206FC7
:101FF0007574206F662072616E676520282D002938
:102000000A0020746F20003F58206F7574206F669F
:102010002072616E676520282D002E0A002028306E
:102020002D313029002076616C7565206F75742024
:102030006F662072616E676500416476616E6365EC
:10204000204B3D004D383400446F6E65207072693E
:102050006E74696E672066696C650A004D373700DB
:102060004D333100496E76616C6964206578747215
:10207000756465720A0043616E6E6F74206F7065DF
:102080006E2073756264697220004D656469612019
:10209000496E6974204661696C0053442063617223
:1020A00064206F6B0A006F70656E526F6F742066EC
:1020B00061696C65640A00766F6C756D652E696E7A
:1020C0006974206661696C65640A004E6F20534430
:1020D00020636172640A000A4D3234004D323320AD
:1020E0002573002E0A006F70656E206661696C654D
:1020F000642C2046696C653A200046696C65207343
:10210000656C65637465640A002053697A653A20DA
:102110000046696C65206F70656E65643A20004505
:102120004E4420535542524F5554494E450A0022C1
:1021300020706F73002220706172656E743A220005
:10214000535542524F5554494E452043414C4C2023
:102150007461726765743A220053756263616C6CD6
:10216000204F766572666C6F7700457863656564AD
:102170006564206D617820535542524F5554494E45
:10218000452064657074683A0057726974696E67B7
:1021900020746F2066696C653A200066726573680A
:1021A00000646F696E67002066696C653A20004EB6
:1021B0006F7720002F6175746F25632E67004A3298
:1021C00030300053495A45004A3132004D343230E4
:1021D0005356004A3137004175746F206465746549
:1021E00063742070616E656C20747970652028615D
:1021F0007373756D696E67206E65772070616E65AB
:102200006C290053657420666F72207374616E646C
:10221000617264205446542070616E656C2E0053C8
:10222000657420666F72206E657720544654207066
:10223000616E656C2E001000C90210012C01400176
:10224000220170011801B0010E01F00104015002D9
:10225000FA00B002F0003003E600D003DC00900486
:10226000D2007005C800A006BE000008B400B00986
:10227000AA00D00BA000600E960060118C00001523
:10228000820020197800C01D6E00A0226400B027D3
:102290005A00902C500000314600E0343C001038C9
:1022A0003200903A2800603C1E00A03D1400803EA1
:1022B0000A00203F00002020506C616E6E65724263
:1022C000756666657242797465733A2000204672BD
:1022D0006565204D656D6F72793A200020436F6D02
:1022E00070696C65643A204465632031392032306E
:1022F00032320A00204C6173742055706461746539
:10230000643A20323032322D30382D3036207C2065
:10231000417574686F723A20284772656720426180
:102320007270612C20416E79637562696320436825
:1023300069726F6E20636F6E666967290A004D616E
:10234000726C696E20322E312E310A0020536F6676
:1023500074776172652052657365740A0020576155
:10236000746368646F672052657365740A00204265
:10237000726F776E206F75742052657365740A00F2
:102380002045787465726E616C2052657365740ABD
:1023900000506F77657255700A0073746172740A29
:1023A000004732385859004D31303031006F6B00E2
:1023B0006572726F722077726974696E6720746FCC
:1023C0002066696C650A00446F6E652073617669EA
:1023D0006E672066696C652E0A004D323900456EC5
:1023E0006473746F70730025532025632025632068
:1023F00025632025630020503A00205A3A002059D6
:102400003A0020583A00656E6473746F70732068E8
:1024100069743A200000000A0B02090C0D0E08072F
:1024200003040100000000000000000000000000A4
:10243000000000000000000000000000000000009C
:102440000012111000000000000000000000000059
:102450000000000000000000000000C23100001C6D
:10246000260000F4190000D80F0000EB080000C09F
:102470000400007502000040010000FFFFFF5072E1
:102480006F62696E67204661696C65640A0050720C
:102490006F62696E67204661696C656400205A3A14
:1024A000200020593A200042656420583A2000520A
:1024B0004553554D45204F5054494F4E533A0048CF
:1024C000656174696E672E2E2E000000436C69638F
:1024D0006B20746F2068656174000000526573752D
:1024E0006D696E672E2E2E00000050757267696E42
:1024F000672E2E2E0000004C6F6164696E672E2ED1
:102500002E000000496E7365727420616E64204372
:102510006C69636B000000436C69636B20746F200F
:10252000636F6E74696E7565000000456A6563745B
:10253000696E672E2E2E000000506C656173652059
:10254000776169742E2E2E0000005061726B696EE7
:10255000672E2E2E0000004C6F61642046696C616E
:102560006D656E7400496E736572742066696C6186
:102570006D656E7420616E642073656E64204D31EC
:1025800030380A00220A00556E6B6E6F776E20633A
:102590006F6D6D616E643A202200204500205A0064
:1025A00020590020204D3932205800537465707333
:1025B0002070657220756E69740002DB0FC93F459B
:1025C000BCDA3F8FB30240FCF0274056946140FED6
:1025D0004B9B4084A5D840E0231841346A5641E81B
:1025E00059974164DBD5416E271742B4B75542CEA7
:1025F0001A9742C8AED542B5885A43D40684BFA6BE
:102600005FA7BF7443E0BF10B11AC01C2C58C0E8CC
:10261000F697C0B849D6C04E4E17C124D355C180D5
:102620002497C1A0B5D5C1121A17C244AE55C278BD
:102630001797C26CACD5C267885AC320746F6F20DD
:102640006C6F6E6720657874727573696F6E207039
:10265000726576656E7465640A0020636F6C642031
:10266000657874727573696F6E2070726576656EC9
:102670007465640A003344205072696E7465722078
:1026800052656164792E005072696E74696E672EAE
:102690002E2E005072696E7420506175736564004F
:1026A000486F6D6520257325732573204669727305
:1026B000740020453A00205A3A0020593A00583A0E
:1026C000006F6B0A00526573656E643A200000006B
:1026D0002200250028002B002E00310034000201CA
:1026E0000000050108010B01000021002400270063
:1026F0002A002D0030003300010100000401070111
:102700000A01050505050705080808080202020276
:102710000A0A08080404040401010101010101017D
:102720000303030303030303040707070C0C0C0C48
:102730000C0C0C0C02020202060606060606060631
:102740000B0B0B0B0B0B0B0B0102102020080810BE
:102750002040102040800201020108040201010211
:1027600004081020408080402010080402018004EA
:102770000201804020100804020108040201010245
:102780000408102040800102040810204080E7D295
:102790001BDD11241FBECFEFD1E2DEBFCDBF00E0B5
:1027A0000CBF84B78093121614BE0FB6F894A89588
:1027B00080916000886180936000109260000FBE7D
:1027C00013E0A0E0B2E0E8E2F3ED01E00BBF02C0ED
:1027D00007900D92AA3CB107D9F726E1AAECB3E025
:1027E00001C01D92A231B207E1F713E1C8ECD3E1B9
:1027F00000E006C021970109802FFE010E942AE611
:10280000C73CD10780E00807A9F70E94C7D30C9402
:1028100083E90C9400000F931F93CF93DF93CDB700
:10282000DEB760970FB6F894DEBF0FBECDBF8C0148
:10283000DC01ED91FC910280F381E02DBE016F5F20
:102840007F4F1995882309F464C08981807CC9F57C
:102850006F81637070E0762F6627770F770F88851A
:10286000B4E08B9FC0011124682B792B8985829558
:10287000869586958370682B6F5F7F4F90E080E030
:102880002A852370220F3B8537FB332730F9232B12
:102890003E813F70230F3327331F2750310904C077
:1028A000660F771F881F991F2A95D2F760960FB67B
:1028B000F894DEBF0FBECDBFDF91CF911F910F9176
:1028C0000895803419F568856695669570E090E006
:1028D00080E0CB01772766272A85622B098510E0E7
:1028E000102F0027012E000C220B330B602B712BB5
:1028F000822B932B6F5F7F4F8F4F9F4F4AE0660F66
:10290000771F881F991F4A95D1F7D0CF8BE0F80128
:10291000848360E070E0CB01C9CF0895FC0182811F
:1029200008952F923F924F925F926F927F928F9273
:102930009F92AF92BF92CF92DF92EF92FF920F934E
:102940001F93CF93DF9300D000D01F921F92CDB77B
:10295000DEB798878F83DC010D90BC91A02DBA83E0
:10296000A98318966D917C9119976115710501F1F4
:1029700014968D919D910D90BC91A02D8B839C837D
:10298000AD83BE83072E000C880B990B0E94CCE10F
:102990002B813C814D815E810E9444E64B015C01AC
:1029A00020E030E040E251EC0E94C6E187FF08C021
:1029B00081E0EF81F885868BC12CD12C7601DEC0B9
:1029C00020E030E040E251E4C501B4010E946BE830
:1029D000181664F481E0AF81B88556968C93C12CAB
:1029E000D12C8FE7E82E83E4F82EC8C0EF81F8855C
:1029F0008689882349F0168A16861786108A118AD6
:102A00001286138614861586A981BA811F964D9069
:102A10005D906D907C905297EF81F8852685378583
:102A200040895189C501B4010E9445E61B016C0132
:102A300020E030E0A9010E94C6E187FDBAC0A301F1
:102A4000920160E070E08FE793E40E9421E77B0150
:102A50008C019B01AC01B101C6010E946BE8181604
:102A600014F071018601C701D801EF81F8858687CE
:102A70009787A08BB18BA981BA811B962D913D912F
:102A80004D915C911E97C501B4010E942BE24B0150
:102A90005C01EF81F88582829382A482B5829701DE
:102AA000A801C301B2010E942BE22B013C01AF81BE
:102AB000B88516964D925D926D927C9219971A96F2
:102AC000CD90DD90ED90FC901D972B813C814D8148
:102AD0005E8152966D917D918D919C9155970E944A
:102AE00044E6E981FA8123893489458956890E941F
:102AF0002BE2A70196010E9444E620ED3CEC4CE459
:102B00005DE30E942BE2A70196010E9445E66B015E
:102B10007C01AF81B8851A96CD92DD92ED92FC9240
:102B20001D978B819C81AD81BE81EF81F885828B61
:102B3000938BA48BB58BA3019201C501B4010E94B4
:102B400045E6A70196010E9445E620E030E0A90194
:102B50000E9445E66B017C0120E030E0A9010E9463
:102B6000C6E187FD29CF20E030E04FE753E4C701FD
:102B7000B6010E946BE818160CF431CFC701B601FC
:102B800028960FB6F894DEBF0FBECDBFDF91CF9170
:102B90001F910F91FF90EF90DF90CF90BF90AF907B
:102BA0009F908F907F906F905F904F903F902F906D
:102BB0000895E12CF12C00E010E055CFCF93DF9386
:102BC000C091B708D091B80881E0CE31D105E4F0CA
:102BD00020E030E040E05FE36091B3087091B4081A
:102BE0008091B5089091B6080E9445E60E9489E759
:102BF0006C1B7D0B77FF03C071956195710981E0B6
:102C0000633071050CF080E0DF91CF910895CF9390
:102C1000DF93C2E5D5E120E030E040EA52E4609184
:102C2000B3087091B4088091B5089091B6080E94DD
:102C30006BE887FF13C080E0FE01C49120910B0177
:102C400090E002C095958795CA95E2F780FD0EC089
:102C5000207220930901DF91CF910895FE01949194
:102C600081E001C0880F9A95EAF7E6CF2095F0CF72
:102C7000FC0190E1A2EDB5E001900D929A95E1F78B
:102C8000089580E008958091EB139091EC13891BD7
:102C90008F7019F490E080E008959091E8139923E3
:102CA00051F0833030F48FEF890F19F08093E813DF
:102CB000F1CF1092E8138091EC1321E5829FC001BF
:102CC00011248556964FFC01208120FDE3CF2091F1
:102CD000EC132F5F2F702093E9133091EC132091A8
:102CE000EA13321304C02091E9132093EA130895E4
:102CF00090916F0081E091FD02C080E00895909175
:102D00006F009D7F90936F000895FC017081472FA5
:102D100050E0062E02C0559547950A94E2F740FF11
:102D200014C040914F0550E0062E02C055954795BE
:102D30000A94E2F740FF09C021E030E001C0220F11
:102D40006A95EAF720952723208308958F929F9212
:102D5000AF92BF92CF92DF92EF92FF92CF93DF9329
:102D600020914002222309F48EC0EC0180914F058E
:102D7000E82E80FF2CC08090420290904302A090E9
:102D80004402B0904502288139814A815B81C501A6
:102D9000B4010E946BE8181624F488829982AA82F2
:102DA000BB8280904E0290904F02A0905002B09053
:102DB0005102288139814A815B81C501B4010E9499
:102DC000C6E187FF04C088829982AA82BB82E1FEA5
:102DD0002CC08090460290904702A0904802B0908C
:102DE00049022C813D814E815F81C501B4010E9461
:102DF0006BE8181624F48C829D82AE82BF8280908C
:102E0000520290905302A0905402B09055022C812F
:102E10003D814E815F81C501B4010E94C6E187FFFB
:102E200004C08C829D82AE82BF82E2FE2CC0C09024
:102E30004A02D0904B02E0904C02F0904D0228855F
:102E400039854A855B85C701B6010E946BE8181673
:102E500024F4C886D986EA86FB86C0905602D090B4
:102E60005702E0905802F0905902288539854A852A
:102E70005B85C701B6010E94C6E187FF04C0C88612
:102E8000D986EA86FB86DF91CF91FF90EF90DF90A5
:102E9000CF90BF90AF909F908F900895E5E3F5E0BD
:102EA0003AE0632F0E94F7E5292F0E94F7E5905D35
:102EB0009583205D26838AE395E00895982F4091BD
:102EC000A20750E080E0282F082E000C330B2417B7
:102ED000350744F42D55384FF9012081291719F091
:102EE0008F5FF1CF8FEF0895CF93DF93C09157118C
:102EF000D091581181E0CE31D105E4F020E030E0EE
:102F000040E05FE36091531170915411809155112D
:102F1000909156110E9445E60E9489E76C1B7D0B3B
:102F200077FF03C071956195710981E06330710588
:102F30000CF080E0DF91CF91089590E080E008955B
:102F4000CF93DF93C091B708D091B808209729F1AB
:102F50006091B3087091B4088091B5089091B6085B
:102F60000E9489E76E5F7F4F24976C177D07ACF452
:102F70007093E0046093DF040E94C9C2605E714BED
:102F80008F4F9F4F6093E1047093E2048093E304BA
:102F90009093E404DF91CF9108951092E104109290
:102FA000E2041092E3041092E404F4CFCF93DF9391
:102FB000EC018D810E944D7A60E08B81DF91CF9191
:102FC0000C945DC1DF92EF92FF920F931F93CF930A
:102FD000DF938C01C62FD22FF32EE42ED52EE6DF01
:102FE0000E94D5C28C2F80640E94417A8D2D0E9450
:102FF000417A8E2D0E94417A8F2D0E94417A8D2F29
:103000000E94417A87E8C11101C085E90E94417A96
:10301000CC3011F40E94467AC0E00E94467AF80152
:10302000868387FF04C0CF3F11F0CF5FF6CFDF91DB
:10303000CF911F910F91FF90EF90DF90089561E085
:10304000FC0183810E945DC18FEF0C94417A0F9344
:103050001F93CF938C01AADF0E94D5C2C82F88236B
:1030600069F08DEF0E94417A0E94D5C2C82FC80135
:10307000E6DF8C2FCF911F910F91089582E1F80127
:103080008483F5CF8F929F92AF92BF92CF92DF92BF
:10309000EF92FF920F931F93CF93DF93EC016A019E
:1030A0007B01590120E030E0A90167E38BDFA50136
:1030B000980167E1CE0186DF811125C08F818330C1
:1030C00039F089E0CC0CDD1CEE1CFF1C8A95D1F791
:1030D000A701960169E1CE0175DF11E0882319F09F
:1030E00010E087E08C83CE01AADF812FDF91CF91A2
:1030F0001F910F91FF90EF90DF90CF90BF90AF9016
:103100009F908F90089589E08C8310E0ECCFCF934F
:10311000DF93EC016EBDFA01CA019E5F0DB407FE9C
:10312000FDCF20812EBD0DB407FEFDCF21812EBD28
:103130003296E817F90791F70DB407FEFDCF8FEF30
:103140000E94417A8FEF0E94417A0E94467A8E83D4
:103150008F71853041F083E18C83CE0170DF80E098
:10316000DF91CF91089581E0FBCF0F931F93CF9311
:10317000DF93EC018B011ADF0E94D5C281110BC0D5
:1031800085E18C8310E0CE015ADF812FDF91CF9152
:103190001F910F910895A8016CEFCE01B8DF182F91
:1031A000882371F3F0CF0F931F93CF93DF93EC013C
:1031B00089018F81833039F089E0440F551F661FE4
:1031C000771F8A95D1F79A01AB0168E1CE01FADE4B
:1031D000811127C0A8016EEFCE0199DF182F882337
:1031E000A9F00E94D5C2182F8823C1F020E030E05A
:1031F000A9016DE0CE01E6DE882321F086E18C8313
:1032000010E004C00E94467A8111F8CFCE0117DF8A
:10321000812FDF91CF911F910F91089587E18C83CA
:10322000F5CF86E0ECCF1F93CF93DF93EC01BEDEAA
:1032300020E030E0A9016CE0CE01C4DE11E088237B
:1032400019F010E083E08C83CE01F9DE812FDF914D
:10325000CF911F9108951F93CF93DF93EC018F813E
:10326000833039F089E0440F551F661F771F8A9518
:10327000D1F79A01AB0162E1CE01A4DE11E088230F
:1032800019F010E085E08C83CE01D9DE812FDF912B
:10329000CF911F9108958F929F92AF92BF92EF921C
:1032A000FF920F931F93CF93DF938C01EB017A0171
:1032B0000E94C9C24B015C012CE2820E21E0921EE9
:1032C000A11CB11C0E94467AF80186838F3F69F4E5
:1032D0000E94C9C2681979098A099B0997FDF2CF32
:1032E00081E1F8018483C0E021C08E3F69F5F1E0FF
:1032F000EF1AF1088FEF8EBDFE012FEF0DB407FE20
:10330000FDCF8EB581932EBDCF018C1B9D0B8E15ED
:103310009F05A0F30DB407FEFDCF8EB5CE0DDF1DCA
:1033200088830E94467A0E94467AC1E0C80187DEFF
:103330008C2FDF91CF911F910F91FF90EF90BF9055
:10334000AF909F908F9008958FE0CBCF0F931F93F6
:10335000CF93DF93EC018B0129DE40E052E0B8010E
:10336000CE01DF91CF911F910F9195CF0F931F93B6
:10337000CF93DF93EC0189018F81833039F089E0AD
:10338000440F551F661F771F8A95D1F79A01AB012D
:1033900061E1CE0117DE811109C040E052E0B801C1
:1033A000CE01DF91CF911F910F9175CF84E08C8377
:1033B000CE0145DE80E0DF91CF911F910F910895FE
:1033C0008F929F92AF92BF92CF92DF92EF92FF9235
:1033D0000F931F93CF93DF93EC01162F1F821C8254
:1033E0004B830E94C9C26B017C0120EDC20E27E015
:1033F000D21EE11CF11CA89561E08B810E945DC189
:103400008B810E94C3B4209A289A219A2398229AE9
:1034100081E00E944D7A85E08D830E944D7A0AE01A
:103420008FEF0E94417A0150D9F7A89520E030E053
:10343000A90160E0CE01C6DD8E83813079F00E9463
:10344000C9C26C197D098E099F0997FDEFCF81E0F4
:103450008C83CE01F4DD1A8280E065C0A8952AEA4B
:1034600031E040E050E068E0CE01ACDD853031F580
:1034700081E08F83A8958F81812C912C540182301B
:1034800029F4812C912CA12C80E4B82E20E030E08E
:10349000A90167E3CE0196DDA501940169E2CE01A1
:1034A00091DD8E838823F1F00E94C9C26C197D09D9
:1034B0008E099F0997FDEACF8AE0CACF04E00E94F7
:1034C000467A8E830150D9F78A3A11F482E0D1CF3F
:1034D0000E94C9C26C197D098E099F0997FDBFCF53
:1034E00082E0B6CF8F818230B9F420E030E0A901CC
:1034F0006AE3CE0167DD882311F088E0A9CF0E943E
:10350000467A807C803C11F483E08F830E94467A67
:103510000E94467A0E94467ACE0191DD81E08A833C
:10352000173070F41D83DF91CF911F910F91FF90A1
:10353000EF90DF90CF90BF90AF909F908F900895C5
:1035400088E18C8389CF0F931F93CF93DF93EC0196
:103550008B0120E030E0A90169E034DD811109C070
:1035600040E150E0B801CE01DF91CF911F910F9162
:1035700092CE80E18C83CE0162DD80E0DF91CF913D
:103580001F910F9108950F931F93CF938C01C62F16
:1035900080E891E00E94A575C8010E94A5758AE3A4
:1035A0000E949E7580E38C0F0E949E758AE0CF91E9
:1035B0001F910F910C949E750F930091CC0421E004
:1035C00002272EE635E04CE050E0BC0188E695E0AD
:1035D0000E942C740F9108950F930091CC0421E068
:1035E00002272EE635E044E050E0BC0188E695E095
:1035F0000E942C740F9108950F930091CC0421E048
:1036000002272EE635E041E050E0BC0188E695E077
:103610000E942C740F9108950F930091CC0421E027
:1036200002272EE635E041E050E0BC0188E695E057
:103630000E942C740F9108950F930091CC0421E007
:1036400002272EE635E048E050E0BC0188E695E030
:103650000E942C740F9108950F930091CC0421E0E7
:1036600002272EE635E04CE050E0BC0188E695E00C
:103670000E942C740F9108950F9301E02EE635E01F
:1036800041E050E0BC0188E695E00E942C740F9167
:1036900008950F93AB010091CC0421E002272EE6A0
:1036A00035E0BC0188E695E00E942C740F910895E6
:1036B0002EE635E04CE050E0BC0188E695E00C9445
:1036C0009E782EE635E044E050E0BC0188E695E0C7
:1036D0000C949E782EE635E041E050E0BC0188E68F
:1036E00095E00C949E782EE635E041E050E0BC0178
:1036F00088E695E00C949E782EE635E04CE050E0AC
:10370000BC0188E695E00C949E78CF93C82FCB013E
:103710000E94A57582E29AE00E94A57583E19AE075
:10372000CC2311F088E19AE0CF910C9418798F9214
:103730009F92AF92BF92CF92DF92EF92FF92CF9380
:103740006B017C01B42E20E030E0A9010E94C6E1AB
:1037500087FF07C08DE20E946A74F7FAF094F7F8C9
:10376000F094C0E060E070E080E09FE3CB1541F0B2
:103770002DEC3CEC4CEC5DE30E942BE2CF5FF6CFEE
:10378000A70196010E9445E66B017C010E948EE72D
:103790004B015C010E944CB5CC2371F1C501B40111
:1037A0000E94CAE19B01AC01C701B6010E9444E638
:1037B0006B017C018EE20E946A74C150E8F020E047
:1037C00030E040E251E4C701B6010E942BE26B01F8
:1037D0007C010E948EE74B015C010E944CB5C50143
:1037E000B4010E94CAE19B01AC01C701B6010E946D
:1037F00044E66B017C01E1CFCF91FF90EF90DF9029
:10380000CF90BF90AF909F908F900895CF93DF930C
:10381000EC018991882319F00E946A74FACFDF9134
:10382000CF9108958DE00E946A748AE00C946A74C6
:1038300042E07DDFF7CFEADFF5CFCF93DF93EC01F6
:10384000FE0184912196882319F00E946A74F8CFB2
:10385000DF91CF910895CF93DF93EC010E9448C888
:103860001B82DF91CF910895CF93DF93EC01462F18
:1038700041706C857D858E859F850E943EC588231D
:1038800051F0888920E2829FC001112480599E4E08
:10389000DF91CF91089590E080E0FACFCF93DF934E
:1038A000EB01FC012381211104C080E0DF91CF9165
:1038B00008952250223028F48FE28883198281E013
:1038C000F5CF60E0D1DF009781F3DC0160E080E0BC
:1038D0009EE22D91203299F0883031F49E01260F1E
:1038E000311DF90190836F5F9E01260F311DAD01DF
:1038F00041505109FA014081F90140836F5F8F5FA8
:103900008B3039F7FE01E60FF11D1082D8CF3F92C0
:103910004F925F926F927F928F929F92AF92BF92DF
:10392000CF92DF92EF92FF920F931F93CF93DF938B
:10393000CDB7DEB72C970FB6F894DEBF0FBECDBF64
:103940005C01DC0159968D909C90F40181859285F3
:10395000A385B4859C01AD012F5F3F4F4F4F5F4F53
:1039600029873A874B875C87D50114964D905D90E7
:103970006D907C901797411451046104710409F40F
:1039800059C0BFEF4B1A5B0A6B0A7B0A312C7301DB
:1039900062011D821E821F821886F4018185928534
:1039A000A385B4852D813E814F815885281739071D
:1039B0004A075B0708F056C089859A85AB85BC85A8
:1039C0008C159D05AE05BF0550F482E0C82ED12CA4
:1039D000E12CF12C92E0492E512C612C712C9E018E
:1039E0002F5F3F4FB701A601C4010E945DC7882326
:1039F000C9F189819A81AB81BC81892B8A2B8B2B60
:103A000001F1260137019FEF491A590A690A790A1B
:103A10002D813E814F8158852F5F3F4F4F4F5F4F24
:103A20002D833E834F8358873FEFC31AD30AE30A9F
:103A3000F30AB3CF40805180628073803324339483
:103A4000A6CFC414D504E604F70411F70FEF1FEF57
:103A50002FEF3FE0B701A601C4010E94CCC6782E2B
:103A600081111AC0712C872D2C960FB6F894DEBFE9
:103A70000FBECDBFDF91CF911F910F91FF90EF90BF
:103A8000DF90CF90BF90AF909F908F907F906F907E
:103A90005F904F903F900895F50144815581668174
:103AA0007781411551056105710539F0970186014E
:103AB000C4010E94CCC68823A9F2D5011496CD92E8
:103AC000DD92ED92FC921797332051F0D701C60199
:103AD0000196A11DB11DF40180839183A283B3835C
:103AE000F50185899689A789B08D892B8A2B8B2B27
:103AF00009F0B9CFC58AD68AE78AF08E81818068BD
:103B00008183B1CF40E050E0BA010C9495C8FC012C
:103B100023812111A0CE08952F923F924F925F9260
:103B20006F927F928F929F92AF92BF92CF92DF92CD
:103B3000EF92FF920F931F93CF93DF93CDB7DEB732
:103B4000C454D1090FB6F894DEBF0FBECDBF7C01BF
:103B50004B015A01222E19821C821C8E1F8E611568
:103B6000710511F410E0B0C1DC0113968C91811144
:103B7000F9CFFA0180818B018F32D1F4DB011396EA
:103B80008C9113978250823060F059966D917C91A0
:103B9000CE014C960E9457CC8E01045E1F4F8823A5
:103BA00009F3C5015C010196F50120812F32D1F3A3
:103BB0009E012F5F3F4F6901290130E2332E249689
:103BC000CFAE24972596DFAE25973E013CE1630EEC
:103BD000711C22963FAE229721963FAE21973FAEB1
:103BE0003EAE3DAE3CAE3BAE3AAE39AE38AE3FAA8D
:103BF000950190E047E0D9018D91882361F18F32E2
:103C000051F18E3239F44A3009F4ACCF98E04AE0F1
:103C10009D01F1CFE8E1F7E12491222321F03196D3
:103C20008213FACF9FCF491708F49CCF813208F452
:103C300099CF8F3709F496CF3FE9380F3A3108F41E
:103C400020EEE7E3F0E0EC0FFD1FE90FF11D820F1E
:103C500080839F5FDDCF8FA9803209F483CF590124
:103C6000D9018C912F5F3F4F8F32C9F38823A1F088
:103C70000815190511F0C801EEDD24969FAD2497B3
:103C800025968FAD25974C145D0411F4962D872D44
:103C90008601C92ED82E9DCFF801818D928DD70136
:103CA0005A969C938E935997C8012CDFC12CF8012A
:103CB00080859185A285B3854189528963897489FC
:103CC00084179507A607B70708F053C025E0B695F7
:103CD000A795979587952A95D1F7F82FFF70DF2E36
:103CE000D80113968C91823008F43CCF41E050E02B
:103CF000BE016E5B7F4FC8010E94B7C9019709F0F2
:103D000031CFF80180859185A285B3854F96A11D9D
:103D1000B11D80879187A287B387F0E2DF9EB00153
:103D2000112460597E4E6115710509F41BCFDB012A
:103D30008C91882341F0853E09F04CC0CC2029F0BD
:103D4000CC24C394B4CFC1100EC080917013909155
:103D50007113A0917213B0917313F7018487958743
:103D6000A687B787D08ADB018C918111E9CFCC245B
:103D7000C394822D8274823409F0F4CECC2009F4ED
:103D8000C4C0F701D08861E0C7016EDD009709F477
:103D9000E9CE20E2DC011D922A95E9F72BE0FE0135
:103DA000F796DC0101900D922A95E1F721E238E2C5
:103DB000FC01318B208B40E058E057874687338BDE
:103DC000228B318F208F578B468B0E94F5C4811137
:103DD0000AC0C8CE4BE050E0CE01C7960E9415E95C
:103DE000892B09F064CF2D2D30E0F901B5E0EE0FFD
:103DF000FF1FBA95E1F7DF01A059BE4E1B968C91CB
:103E0000817121F0822D827109F01DC1D70159966F
:103E10008D919C915A9740917013509171136091BC
:103E20007213709173131C964D935D936D937C93F5
:103E30001F975096DC925097E059FE4E84889588E3
:103E4000B12CA12C54019924882455968D929D92D1
:103E5000AD92BC925897428D538D70E060E0482936
:103E600059296A297B2955964D935D936D937C93CF
:103E70005897A5E0220F331FAA95E1F7D901A05961
:103E8000BE4E1B962C91287109F0CFC0848D958D64
:103E9000A68DB78DF701818B928BA38BB48B81E0BC
:103EA0008383822D8F70F70181831482158216829D
:103EB0001782108611861286138611E024FE04C034
:103EC000C7010E9428C9182FCE014C9620DECE01D2
:103ED00001961DDE812FCC5BDF4F0FB6F894DEBF5D
:103EE0000FBECDBFDF91CF911F910F91FF90EF904B
:103EF000DF90CF90BF90AF909F908F907F906F900A
:103F00005F904F903F902F900895D80113968C9119
:103F10001397823009F426CE51968D919D910D9084
:103F2000BC91A02D803E9F4FAF41B10508F01ACE45
:103F3000C801EDDC882309F415CE0E94F5C488235E
:103F400009F410CED8015996ED91FC915A97149628
:103F50008D909D90AD90BC901797B2E08B1A910810
:103F6000A108B108858504C0880C991CAA1CBB1C3B
:103F70008A95D2F786859785A089B189880E991E82
:103F8000AA1EBB1E81E080937413809270139092DE
:103F90007113A0927213B0927313E0E7F1E180E025
:103FA00092E0DF019C011D9221503040E1F7DD24B9
:103FB000D394D8015996ED91FC918481D816C0F420
:103FC0008091751390917613DC01ED91FC9102883C
:103FD000F389E02D20E731E1B501A4014D0D511D1C
:103FE000611D711D1995882309F4BCCDD394E1CFCF
:103FF000258580E092E0A0E0B0E004C0880F991F22
:10400000AA1FBB1F2A95D2F7F801418952896389FB
:104010007489840F951FA61FB71F818B928BA38B6A
:10402000B48B80E791E1D12CB4CE203161F49701BB
:104030002F5E3F4F0E94DFC7882329F084E0D7011D
:1040400013968C932ECFD70113961C928BCD682F8D
:1040500070E090E080E00C94E2B48F929F92AF9277
:10406000BF92CF92DF92EF92FF92CF936B017C01D0
:10407000B42E20E030E0A9010E94C6E187FF07C00E
:104080008DE20E949E75F7FAF094F7F8F094C0E084
:1040900060E070E080E09FE3CB1541F02DEC3CEC5C
:1040A0004CEC5DE30E942BE2CF5FF6CFA7019601B7
:1040B0000E9445E66B017C010E948EE74B015C018A
:1040C0000E94E2B4CC2371F1C501B4010E94CAE19F
:1040D0009B01AC01C701B6010E9444E66B017C0163
:1040E0008EE20E949E75C150E8F020E030E040E290
:1040F00051E4C701B6010E942BE26B017C010E94D2
:104100008EE74B015C010E94E2B4C501B4010E943C
:10411000CAE19B01AC01C701B6010E9444E66B01F4
:104120007C01E1CFCF91FF90EF90DF90CF90BF90D7
:10413000AF909F908F900895EF92FF920F931F93EF
:10414000CF937B018A01C2E48F3F09F0C4E580E28E
:104150000E949E758C2F0E949E758AE30E949E7518
:10416000F701608171818281938142E076DF88E08E
:1041700097E10E94A575F801608171818281938128
:1041800042E06BDF62E070E080E090E0CF911F9151
:104190000F91FF90EF900C9496C21F93CF93DF93F3
:1041A00000D000D01F921F92CDB7DEB7182F6091BC
:1041B000B7087091B808072E000C880B990B0E9465
:1041C000CCE16D837E838F8398878091B308909133
:1041D000B408A091B508B091B60889839A83AB83DF
:1041E000BC83AE014B5F5F4FBE016F5F7F4F80E8C6
:1041F000A3DF6091571170915811072E000C880BA6
:10420000990B0E94CCE16D837E838F839887809188
:10421000531190915411A0915511B0915611898369
:104220009A83AB83BC83AE014B5F5F4FBE016F5F70
:104230007F4F8FEF81DF609159111F3F39F087E188
:104240001802F0011124E155F74F628570E080E11A
:1042500097E10E9492786091591170E08BE097E1AC
:104260000E94927828960FB6F894DEBF0FBECDBF9D
:10427000DF91CF911F9108950F930FB70F93009186
:104280006E000D7F00936E0078940F930BB70F9321
:104290000CB70F921F922F933F934F935F936F939F
:1042A0007F938F939F93AF93BF93EF93FF931124CB
:1042B0007DD7FF91EF91BF91AF919F918F917F91AA
:1042C0006F915F914F913F912F911F900F900CBF75
:1042D0000F910BBF0F910260F89400936E000F9145
:1042E0000FBF0F911895CF93DF931092DE04CFEAA2
:1042F000D8E0198618860E94A0171A862C98CFE459
:10430000D1E1198618860E94DB6F1A8680910B0115
:10431000807180930901DF91CF9108958F929F92D0
:10432000AF92BF92CF92DF92EF92FF920F931F93C3
:10433000CF93DF93B0E4A0E06A2F70E0AB014B0FA6
:10434000511D55954795411119C0EBECF5E165916B
:104350007491072E000C880B990B0E94CCE1DF9121
:10436000CF911F910F91FF90EF90DF90CF90BF9072
:10437000AF909F908F900895B42FE0CFA41711F0C5
:10438000B41303C0E7ECF6E1E2CF9A012150310902
:10439000220F331F220F331FF901E753FA4EE59026
:1043A000F490F901E353FA4EC591D4918E159F050F
:1043B00018F3A42FC817D90708F4BECFF901E553A5
:1043C000FA4E05911491F901E153FA4EC590D4903B
:1043D0008E199F09BC0190E080E00E94CAE14B0168
:1043E0005C01B601601B710B072E000C880B990B4A
:1043F0000E94CCE19B01AC01C501B4010E942BE2FB
:104400004B015C01CE19DF09BE0190E080E00E9403
:10441000CAE19B01AC01C501B4010E9421E76B0117
:104420007C01B801110F880B990B0E94CCE19B0114
:10443000AC01C701B6010E9445E691CFBC012091B5
:10444000C3053091C4054091C3055091C40524179C
:10445000350731F481E02617370709F080E0089529
:104460009A01F1CF613271058105910538F4E8E4D4
:10447000F1E16591749190E080E00895AB01BC0199
:104480004052510961097109411528E0520761053F
:104490007105D8F024E0529FC0011124885B924F2F
:1044A000FC01329625913491FC0185919491AA27C3
:1044B000439FF001429FE10DFA1F0694EA1FFA1F85
:1044C00011248E1B9F0BBC01D6CFDB01CA01B69510
:1044D000A795979587958C7F9C01285B3E4EF901A7
:1044E00085919491F9013296A591B49147704A9FB4
:1044F00090014B9F300D112443E0369527954A9546
:10450000E1F7821B930BDFCF0F930FB70F9300914F
:104510006E000F930D7F00936E0000916F000D7F72
:1045200000936F000F930BB70F930CB70F921F926E
:104530002F933F934F935F936F937F938F939F93AB
:10454000AF93BF93EF93FF9311249CD7FF91EF910B
:10455000BF91AF919F918F917F916F915F914F919B
:104560003F912F911F900F900CBF0F910BBF0F9198
:104570000260F89400936F000F9100936E000F910A
:104580000FBF0F91189500C080913A0880FF24C09A
:10459000899A8FEF8093270680913A0881FF1FC088
:1045A0008F9A8FEF8093280680913A0882FF1AC075
:1045B00080910B018095827080930901439A8FEF5F
:1045C0008093290680913A0883FF14C016988FEFD4
:1045D00080932A0600C00895899881E0DBCF8F98E8
:1045E00081E0E0CF80910B018270809309014398B4
:1045F00081E0E6CF169A81E0EBCF80917105877F4D
:1046000080937105129A81E0089512988091710546
:10461000886080937105089521E030E0082E02C083
:10462000220F331F0A94E2F720953095909171057F
:10463000292320937105813061F020F0823071F0E0
:1046400081E008955F9A80918C088E7F80938C081A
:10465000F7CF8A9A80918C088D7FF8CF80910801DE
:104660008095817080930601479A80918C088B7F9A
:10467000EDCF80E0D1DF81E0CFDF82E0CDDFBDCFC5
:10468000813089F070F0823081F021E030E001C0AB
:10469000220F8A95EAF780917105822B809371052C
:1046A00008955F98F2CF8A98F0CF909108019170A9
:1046B000909306014798E9CFCF93DF9300D01F92E4
:1046C000CDB7DEB780912708882389F083E390E097
:1046D0009C838B831A8219829E012F5F3F4F40E19A
:1046E00050E068E278E0CE0103960E949E780F9039
:1046F0000F900F900F90DF91CF910895CF93DF939C
:1047000000D01F921F92CDB7DEB781E080932708BB
:1047100080E1E8E2F8E0DF011D928A95E9F7CCDF5D
:1047200086E18D8382E390E09C838B831A821982D9
:104730009E012F5F3F4F41E050E0BE016B5F7F4F16
:10474000CE0103960E949E780F900F900F900F90CD
:104750000F90DF91CF9108954F925F926F927F9269
:104760008F929F92AF92BF92CF92DF92EF92FF9281
:10477000CF93DF9300D000D0CDB7DEB79E838D837B
:104780000E943F704B015C01AD81BE8118964D9037
:104790005D906D907C901B97AC019B01C301B201B1
:1047A0000E9444E66B017C018091190990911A09DD
:1047B000A0911B09B0911C0989839A83AB83BC83A8
:1047C00020E030E0A901BC01CD010E94C6E18823B0
:1047D00049F020E030E0A901C701B6010E94C6E11E
:1047E0001816ECF0AD81BE811896CD92DD92ED9257
:1047F000FC921B9726960FB6F894DEBF0FBECDBF76
:10480000DF91CF91FF90EF90DF90CF90BF90AF906E
:104810009F908F907F906F905F904F900895298127
:104820003A814B815C81C301B2010E946BE887FF32
:10483000E1CF20911409309115094091160950914A
:104840001709C501B4010E942BE29B01AC0160E095
:1048500070E080E89FE30E9444E69B01AC01C70141
:10486000B6010E9421E7ED81FE8160877187828712
:104870009387C0CF843021E0920714F084E091E068
:104880009093B8088093B7080C94366FCF93DF935A
:1048900080914204811119C0C0911402D091150277
:1048A000219720E030E040E05FE36091B308709131
:1048B000B4088091B5089091B6080E9445E60E9420
:1048C00089E721E06C177D070CF020E0822FDF9153
:1048D000CF910895CF92DF92EF92FF920F931F93A3
:1048E000CF93DF93C2E5D9E001E219E0C12CD12CCE
:1048F0007601C39469917991899199910E94CAE155
:10490000288939894A895B890E942BE20E948EE7B7
:10491000F80161937193819391938F01C616D70625
:10492000E806F90610F46B017C01F9E0C236DF07F6
:1049300009F76FEF7FEFCB01A70196010E94A0E579
:10494000209331093093320940933309509334094D
:1049500023EF34E045E35FE360911D0970911E0988
:1049600080911F09909120090E942BE22AE136EFE5
:1049700045E95EE30E9421E76B017C0160915209E9
:104980007091530980915409909155090E94CAE190
:104990009B01AC01C701B6010E942BE20E94B0E866
:1049A00060933509709336098093370990933809DD
:1049B000DF91CF911F910F91FF90EF90DF90CF90FB
:1049C00008950F931F93CF93DF9306E619E0CFE38B
:1049D000D9E0F80121913191419151918F0160E02D
:1049E00070E080E89FE30E9421E7699379938993BF
:1049F0009993F9E0CF34DF0761F70E946CB7DF913C
:104A0000CF911F910F9166CF9091EB138091EC1392
:104A1000981306C080914F0990915009892B21F07D
:104A200080E00E94917CF0CF08959091EB138091EB
:104A3000EC13981307C080914F0990915009892B6E
:104A400009F417CE80E00E94917CEFCF8F929F9265
:104A5000AF92BF92CF92DF92EF92FF92CF93DF930C
:104A600020911809222309F482C0EC0180901909D1
:104A700090901A09A0901B09B0901C0920E030E02A
:104A8000A901C501B4010E94C6E1882309F47AC0D6
:104A9000C884D984EA84FB8420E030E0A901C701FE
:104AA000B6010E94C6E118160CF06CC0A701960171
:104AB000C501B4010E94C6E118160CF058C020913F
:104AC0001009309111094091120950911309C70141
:104AD000B6010E94C6E1882321F1C0921009D0924C
:104AE0001109E0921209F0921309209114093091F2
:104AF00015094091160950911709C701B6010E9486
:104B00002BE29B01AC0160E070E080E89FE30E9433
:104B100044E6609310027093110280931202909306
:104B20001302C0901002D0901102E0901202F09097
:104B3000130220E030E0A901C701B6010E94C6E1DE
:104B40008823A9F0CE010E943F709B01AC01C701F0
:104B5000B6010E942BE29B01AC01688579858A85AC
:104B60009B850E9445E6688779878A879B87DF91C6
:104B7000CF91FF90EF90DF90CF90BF90AF909F903C
:104B80008F900895C12CD12C80E8E82E8FE3F82E69
:104B9000D9CFCF92DF92EF92FF9280916304882366
:104BA00009F457C0C0905F04D0906004E0906104A5
:104BB000F090620420E030E0A901C701B6010E9434
:104BC000C6E1882309F445C020E030E040E05FE31F
:104BD000C701B6010E942BE29B01AC010E942BE2AF
:104BE0002BED3FE049E450E40E942BE29B01AC0135
:104BF00060E070E080E89FE30E9421E76B017C01A8
:104C0000C0923E04D0923F04E0924004F0924104EE
:104C100060910E0270910F02072E000C880B990B09
:104C20000E94CCE12AE037ED43E25CE30E942BE2F4
:104C3000A70196010E942BE26093630270936402C5
:104C40008093650290936602FF90EF90DF90CF9083
:104C50000895C12CD12C80E8E82E8FE3F82ED0CF18
:104C60004F925F926F927F928F929F92AF92BF927C
:104C7000CF92DF92EF92FF920F931F93CF93DF9328
:104C8000CDB7DEB76E970FB6F894DEBF0FBECDBFBF
:104C90009E8F8D8F5B018A01FC01FF9620813181FF
:104CA000428153812D873E874F87588BCA01B901B6
:104CB0000E94CAE16B017C01D5012D913D914D917E
:104CC0005C910E942BE20E940BE72B013C01F80152
:104CD0002081318142815381C701B6010E942BE2BC
:104CE0000E940BE74B015C01C301B2010E948EE7F9
:104CF00069877A878B879C8768377105810591055D
:104D000040F428E730E040E050E029873A874B87BD
:104D10005C87C501B4010E948EE76D837E838F831B
:104D20009887683771058105910540F488E790E020
:104D3000A0E0B0E08D839E83AF83B887ED8DFE8DBC
:104D4000E55BFF4F80809180A280B380AD8DBE8DEA
:104D500095962D913D914D915C91989729833A8339
:104D60004B835C8381149104A104B10409F45BC1F9
:104D7000A7019601C701B6010E942BE22B013C015D
:104D800069857A858B859C850E94CAE19B01AC016F
:104D90000E942BE26D8B7E8B8F8B988FC501B401A7
:104DA0000E94CCE1698B7A8B8B8B9C8B9B01AC0135
:104DB00060E070E080E09FE30E9421E74B015C012E
:104DC0002D893E894F89588DC301B2010E9444E666
:104DD000A50194010E942BE2698F7A8F8B8F9C8FA3
:104DE0000E940BE70E948EE76B017C016D817E8142
:104DF0008F8198850E94CAE19B01AC010E942BE241
:104E00009B01AC01C301B2010E9444E6A5019401DB
:104E10000E942BE22B013C010E94BAE70E948EE720
:104E20004B015C01D701C601880D991DAA1DBB1D50
:104E300029813A814B815C81281B390B4A0B5B0B22
:104E4000DA01C901B7FF5FC069817A818B819C81DA
:104E50000E94CAE1298D3A8D4B8D5C8D0E9445E6FA
:104E6000A30192010E9444E620E030E040E05FE3CD
:104E70000E942BE20E940BE76B017C0120E030E0F6
:104E8000A9010E946BE818161CF0C12CD12C7601E8
:104E9000C701B6010E948EE76B017C0189819A816E
:104EA000AB81BC818C159D05AE05BF0510F46C016E
:104EB0007D0189809A80AB80BC808C189D08AE08EB
:104EC000BF08C701B6010E94CAE12B013C01298934
:104ED0003A894B895C89CA01B9010E9445E69B0168
:104EE000AC01C301B2010E942BE22D893E894F899A
:104EF000588D0E9445E60E94B0E80E948EE76D87BB
:104F00007E878F87988BAD8DBE8D9996CD92DD92E1
:104F1000ED92FC929C9789819A81AB81BC81881922
:104F20009909AA09BB09ED8DFE8D85A796A7A7A7AC
:104F3000B0ABED5BFF4F29853A854B855C852083BF
:104F4000318342835383ED8DFE8DE95BFF4F8D816D
:104F50009E81AF81B88580839183A283B383ED8DD9
:104F6000FE8D86A997A9A0ADB1AD892B8A2B8B2B7D
:104F700009F442C061A172A183A194A10E94CAE177
:104F80002091390930913A0940913B0950913C09EF
:104F90000E942BE26B017C0169817A818B819C816B
:104FA0000E94CAE19B01AC01C701B6010E9421E742
:104FB0006B017C016D857E858F8598890E94CAE191
:104FC000A70196010E942BE20E948EE7AD8DBE8D57
:104FD000DC967C936E93DB976D817E818F819885C3
:104FE0000E94CAE1A70196010E942BE20E948EE76F
:104FF000ED8DFE8D76AF65AF6E960FB6F894DEBF81
:105000000FBECDBFDF91CF911F910F91FF90EF9019
:10501000DF90CF90BF90AF909F908F907F906F90D8
:105020005F904F900895812C912C5401C12CD12C6C
:10503000760169CFEFE6F0E0808182608083089599
:10504000CF93C82F0E94781694E0C99F9001112435
:10505000F901EA53FA4F2E523A4FD9014D915D9121
:105060006D917C91408351836283738391E090932F
:10507000C505882311F0CF91DDCFCF910895CF934F
:10508000DF9380913908811105C080918D088823B4
:1050900009F489C080912B06659979C0816080935D
:1050A0002B069091090180912B0697FD72C08260BA
:1050B00080932B0680912B064B9B6DC08460809360
:1050C0002B069091090180912B0696FF66C088609F
:1050D00080932B0680912B06649B61C08061809336
:1050E0002B06C091B605C0FF0FC080913A0880FF23
:1050F0000BC080912B0680FF07C080918B088160D8
:1051000080938B0880E09CDFC1FF0FC080913A083C
:1051100081FF0BC080912B0681FF07C080918B0817
:10512000826080938B0881E08BDFC2FF3CC080915E
:105130003A0882FF38C080918D08811117C0909184
:105140002B0692FB882780F993FF2BC092E0892BD6
:1051500069F090918B08946090938B089091D7049C
:10516000992311F0833011F482E06ADF80918D0879
:105170008823C9F080912B0684FF15C080918B088D
:10518000806180938B0882E0DF91CF9159CF8E7F31
:1051900086CF8D7F8DCF8B7F92CF877F99CF8F7E6C
:1051A0009ECF90E0D4CFDF91CF9108951F93CF93FE
:1051B000DF93809125028F3708F4C7C08F579091F5
:1051C000B90890932F06992309F4BDC02C9A209119
:1051D000591120932E0690910B01211190959071F9
:1051E000909309018F5F8093250280912D0691E0B5
:1051F000892780932D0680912402980F85300CF02A
:1052000090E0823009F4FCC00CF0ACC0882309F4B3
:10521000C1C0813009F4E8C090932402C091D80441
:10522000D091D904209709F47EC0F8941091090117
:10523000127082E025DA00C080910B011C161D0659
:105240000CF080958270809309011C161D060CF4E9
:1052500006C1439A00C08091D704882309F401C194
:1052600080912B0682FF04C08091290687FD0AC029
:105270008091D604811106C080910B0180958870C1
:105280008093090180912B0683FF04C08091290639
:1052900087FD05C08091D504811101C0419A00C0ED
:1052A000000082E090E00197F0F78091D704882316
:1052B00009F4DEC080912B0682FF04C0809129068C
:1052C00087FD09C08091D604811105C080910B0132
:1052D00088708093090180912B0683FF04C0809120
:1052E000290687FD05C08091D504811101C0419830
:1052F00000C080910B01111180958270809309018B
:10530000112309F4BBC0439A00C078948091D8045B
:105310009091D9041C161D060CF0B2C00197909311
:10532000D9048093D804ABDE80914F099091500945
:10533000009729F001979093500980934F09DF91CE
:10534000CF911F9108952C9842CF90912F068917E5
:1053500008F02C9890912E06891708F443CF90916D
:105360000B013DCF843009F463C00CF45CC0853080
:1053700009F052CF20912C06211102C080932C06F7
:1053800080912C06815080932C06882309F444CF09
:1053900095E042CF809123028F5F80311CF480938F
:1053A00023023ACF1092230280912606811113C066
:1053B0002091AF083091B0083093B2082093B10823
:1053C00020914F113091501130935211209351116F
:1053D00081E0809326061092B0081092AF081092D8
:1053E000501110924F1118CF88E080937B0085E414
:1053F00080937C0080917A00806480937A000CCF47
:1054000080917A0086FD27C0409178005091790004
:105410002091AF083091B008240F351F3093B008A9
:105420002093AF08F9CE88E080937B0086E4E0CF3C
:1054300080917A0086FD11C04091780050917900EA
:1054400020914F1130915011240F351F309350117E
:1054500020934F11E1CE92E0DFCE94E0DDCE439871
:10546000F9CE80910B01809588708093090116CF49
:1054700080910B0188708093090139CF439844CF04
:1054800001964DCF2F923F924F925F926F927F92F3
:105490008F929F92AF92BF92CF92DF92EF92FF9244
:1054A0000F931F93CF93DF9300D000D000D01F92B3
:1054B000CDB7DEB78FEF9FEF909389008093880080
:1054C0000AE00983312C212C78948091BF059091BA
:1054D000C005A091C105B091C205892B8A2B8B2BE9
:1054E00009F071C28091C505882371F18091C305CF
:1054F0009091C4051092C505892B09F464C21092DD
:10550000C4051092C3051092B6059091EB138091DB
:10551000EC13981731F08091EC138F5F8F708093AC
:10552000EC138FEF9FEFDC0180931F02909320021A
:10553000A0932102B093220280931B0290931C023D
:10554000A0931D02B0931E028091C3059091C405E3
:10555000892B09F438C24091BB055091BC0560917C
:10556000BD057091BE058091B7059091B805A091D9
:10557000B905B091BA0500918A0810E030E020E04A
:10558000841B950BA60BB70B081719072A073B07B7
:1055900010F4D901C8018A87840F951FA61FB71F71
:1055A0008093BB059093BC05A093BD05B093BE0549
:1055B00030E020E091E099870091C3051091C40587
:1055C00040917A0550917B0560917C0570917D0535
:1055D00080918A0590918B05A0918C05B0918D05E5
:1055E000840F951FA61FB71F80938A0590938B0584
:1055F000A0938C05B0938D05AC01BD0140955095ED
:10560000609570956A017B01CC24F7FCC394DD247E
:10561000EE24FF24CA82DB82EC82FD82DA80DE8205
:10562000B7FD2FC0C09027060C2C000CDD08EE083B
:10563000FF084091D2055091D3056091D405709137
:10564000D5054C0D5D1D6E1D7F1D4093D2055093F9
:10565000D3056093D4057093D5054091760550919C
:1056600077056091780570917905841B950BA60BE1
:10567000B70B80938A0590938B05A0938C05B0930C
:105680008D0540917E0550917F0560918005709158
:10569000810580918E0590918F05A0919005B09124
:1056A0009105840F951FA61FB71F80938E059093B9
:1056B0008F05A0939005B09391052C013D01409476
:1056C000509460947094442477FC43945524662449
:1056D00077244886B7FD2FC0C09028060C2C000CFC
:1056E000DD08EE08FF084091D6055091D70560917E
:1056F000D8057091D9054C0D5D1D6E1D7F1D409321
:10570000D6055093D7056093D8057093D90540917D
:105710007605509177056091780570917905841B25
:10572000950BA60BB70B80938E0590938F05A093D6
:105730009005B09391054091820550918305609149
:105740008405709185058091920590919305A091B3
:105750009405B0919505840F951FA61FB71F8093E0
:10576000920590939305A0939405B09395054C01F1
:105770005D0180949094A094B0948824B7FC8394A5
:105780009924AA24BB248F82B7FD2FC0C09029067C
:105790000C2C000CDD08EE08FF084091DA05509152
:1057A000DB056091DC057091DD054C0D5D1D6E1D06
:1057B0007F1D4093DA055093DB056093DC05709301
:1057C000DD054091760550917705609178057091DF
:1057D0007905841B950BA60BB70B809392059093CC
:1057E0009305A0939405B09395054091860550913B
:1057F0008705609188057091890580919605909143
:105800009705A0919805B0919905840F951FA61F43
:10581000B71F8093960590939705A0939805B09332
:105820009905B7FD54C0C090DE05D090DF05E0902B
:10583000E005F090E10540912A06042E000C550B7E
:10584000660B770B4C0D5D1D6E1D7F1D4093DE05B5
:105850005093DF056093E0057093E1054091760574
:10586000509177056091780570917905841B950BAF
:10587000A60BB70B8093960590939705A093980578
:10588000B0939905F80186A997A9A0ADB1AD41E003
:10589000892B8A2B8B2BE1F0C092DE05D092DF059D
:1058A000E092E005F092E1058091A6059091A705B0
:1058B000A091A805B091A9050197A109B10980930C
:1058C000A6059093A705A093A805B093A90540E06D
:1058D000F985F11108C08091840090918500821BA8
:1058E000930B0497C0F39A81CE80C110889AD88414
:1058F000D1108E9AEF80EE2021F18091D704882379
:1059000009F4EAC080912B0682FF04C08091290629
:1059100087FD0AC08091D604811106C080910B01D9
:10592000809588708093090180912B0683FF04C0C5
:105930008091290687FD05C08091D504811101C0A1
:10594000419A4111149A2091840030918500609110
:105950008400709185009111889841108E9888205C
:1059600019F18091D704882309F4BDC080912B06DA
:1059700082FF04C08091290687FD09C08091D6046A
:10598000811105C080910B0188708093090180917D
:105990002B0683FF04C08091290687FD05C08091F6
:1059A000D504811101C0419841111498FA84FF2057
:1059B00021F020918400309185000A8501500A87EA
:1059C00019860111F9CD80911F0290912002A091BA
:1059D0002102B09122020097A105B10509F089C00A
:1059E00040919A0550919B0560919C0570919D0591
:1059F0008091720590917305A0917405B091750521
:105A0000840F951FA61FB71F80939A0590939B053F
:105A1000A0939C05B0939D05B7FD4DC040912A060B
:105A2000042E000C550B660B770B0091DE051091D0
:105A3000DF052091E0053091E105040F151F261FB9
:105A4000371F0093DE051093DF052093E0053093A8
:105A5000E1050091A6051091A7052091A8053091B8
:105A6000A905400F511F621F731F4093A605509355
:105A7000A7056093A8057093A905409176055091FC
:105A800077056091780570917905841B950BA60BBD
:105A9000B70B80939A0590939B05A0939C05B093B8
:105AA0009D05149A809184009091850080918400D6
:105AB00090918500149880911B0290911C02A091F6
:105AC0001D02B0911E0280931F0290932002A093AA
:105AD0002102B093220212C080910B018095887040
